:020000040800F2
:10000000E0F7002045010008DD1E0008011500088A
:10001000D91E0008210200083D220008000000004F
:10002000000000000000000000000000451F000864
:100030005102000800000000191F0008471F0008B7
:100040005F0100085F0100085F0100085F01000810
:100050005F0100085F010008530200085F0100080B
:100060005F0100085F0100085F0100085F010008F0
:100070005F0100085F0100085F0100085F010008E0
:100080005F0100085F0100085F0100085F010008D0
:100090005F0100085F0100085F0100085F010008C0
:1000A0005F0100085F0100085F0100085F010008B0
:1000B0005F0100085F0100085F0100085F010008A0
:1000C0005F0100085F0100085F0100085F01000890
:1000D0005F0100085F0100085F0100085F01000880
:1000E0005F0100085F0100085F0100085F01000870
:1000F0005F0100085F0100085F0100085F01000860
:100100005F0100085F0100085F0100085F0100084F
:100110005F0100085F0100085F0100085F0100083F
:100120005F0100085F0100085F0100085F0100082F
:10013000DFF80CD000F062F800480047F92A000808
:10014000E0F700200648804706480047FEE7FEE744
:10015000FEE7FEE7FEE7FEE7FEE7FEE7FEE7FEE777
:10016000B11F000831010008202A04DB203A21FADF
:1001700002F00021704721FA02F3D040C2F12002C0
:10018000914008431946704740EA01039B0703D09A
:1001900009E008C9121F08C0042AFAD203E011F8C6
:1001A000013B00F8013B521EF9D27047D2B201E088
:1001B00000F8012B491EFBD270470022F6E710B56C
:1001C00013460A4604461946FFF7F0FF204610BDC5
:1001D00030B50B46014600202022012409E021FA17
:1001E00002F59D4205D303FA02F5491B04FA02F514
:1001F0002844151EA2F10102F1DC30BD064C074D6A
:1002000006E0E06840F0010394E8070098471034E6
:10021000AC42F6D3FFF790FF886F0008A86F000884
:1002200000BFFEE710B50848084908604FF4E13008
:100230004860002105488160C160016181610C2135
:10024000416101F004F810BD003801404000002079
:10025000704770470021074AD1610749096941F099
:100260000401054A11611146096941F0400111611B
:100270007047000020000020002002400021074AB3
:10028000D1610749096941F00201054A116111462E
:100290004861096941F04001116170472000002068
:1002A000002002400022054BDA61054A126942F043
:1002B0000102034B1A6101807047000020000020FA
:1002C0000020024000201E49C96801F0100139B128
:1002D0001C49C96941F002011A4AD16140F010007D
:1002E0001749C96801F0040139B11649C96941F0DB
:1002F0000101144AD16140F004001149C96901F0BB
:10030000010169B10F49C96941F004010D4AD16188
:1003100000BF0B49C96921F00101094AD16100BF41
:1003200000BF40F20111884206D10549C96921F098
:100330000101034AD16101E00149C86000BF704773
:10034000002002402000002070B5044600F04AFB67
:10035000054609E0601C38B124B100F043FB401BA6
:10036000A04201D9032070BD1248C06800F001000E
:100370000028EFD10F48C06800F0200020B100BF76
:1003800020200C49C86000BF0A48C06800F0100077
:1003900048B90848C06900F0010020B90548C068A4
:1003A00000F0040018B1FFF78DFF0120DBE700200B
:1003B000D9E700000020024070B50446B3F5804F35
:1003C00013D1D1E9000540EA05108D6840EA052007
:1003D0008D6928438D8940EA054054F82250064E25
:1003E0003540284344F8220003E06FF0704044F8A1
:1003F0002200002070BD00000000F0CF10B50246C2
:10040000086852F8200020F001000B6842F8230031
:100410008868082822D1486840F040008B6818435B
:10042000CB6818430B6918434B6918438B69184311
:10043000CB6918430B6A18434B6A18438B6A1843FD
:10044000CB6A18430B6B18430B6852F82330144CDB
:10045000234018430B6842F823001FE0D1E9010351
:100460001843CB6818430B6918434B6918438B69D1
:100470001843CB6918430B6A18434B6A18438B6ABD
:100480001843CB6A18430B6B18430B6852F82330A0
:10049000034C234018430B6842F82300002010BD92
:1004A0008100F7FF10B50346D1E9000440EA0410CB
:1004B0008C6840EA04208C8940EA0444088A401E83
:1004C00044EA0054087D801E44EA00608C692043A1
:1004D000541C53F8244004F040442043541C43F877
:1004E0002400002010BD31B500F07CFA0546009CC8
:1004F000601C00B1641C00BF00F074FA401BA042F5
:10050000FAD338BD2DE9F04104460E4601270025F7
:1005100000BF2648007E012802D10220BDE8F081FC
:1005200001202249087600BF2068022813D14CF22E
:100530005030FFF709FF90BB0120FFF78BFE4CF214
:100540005030FFF701FF07461948006920F004000A
:100550001749086123E04CF25030FFF7F5FEF0B97F
:100560004FF0FF303060A56812E02846FFF786FEA6
:100570004CF25030FFF7E8FE07460D48006920F0C6
:1005800002000B4908610FB1356007E005F5006511
:10059000D4E9021001EBC020A842E6D800BF00BF9A
:1005A00000200249087600BF3846B7E72000002047
:1005B000002002400348006940F0800001490861C2
:1005C00000207047002002402DE9FE4F05468B4673
:1005D00017469846012600240020029000BF2448B8
:1005E000007E012802D10220BDE8FE8F01202049B3
:1005F000087600BF4CF25030FFF7A6FE064686BBD9
:10060000012D02D10120029006E0022D02D102202C
:10061000029001E00420029000241EE02201B9466D
:10062000C24648465146FFF79FFD80B20190022026
:1006300000FB04B000900199FFF734FE4CF25030FB
:10064000FFF782FE06460B48006920F001000949C9
:10065000086106B104E0601CC4B202988442DDDB8C
:1006600000BF00BF00200249087600BF3046BBE74C
:1006700020000020002002400748006900F08000B0
:1006800028B10648044948600548486001E0012057
:1006900070470020FCE7000000200240230167456E
:1006A000AB89EFCD2DE9F847024600240020002554
:1006B0008446002700237BE14FF0010808FA03F489
:1006C000D1F8008008EA0400A0427DD1DFF8ECA256
:1006D000D1F80480A8EB0A09D0453AD014DCB8F16F
:1006E000030F50D009DCB8F1000F31D0B8F1010F81
:1006F0001CD0B8F1020F49D120E0B8F1110F18D089
:10070000B8F1120F42D11EE0B9F5881F25D006DCE2
:10071000B9F5803F20D0B9F5801F37D11AE0B9F57F
:10072000001F18D0B9F5041F30D117E0D1F80CC064
:100730002DE0D1F80C8008F1040C28E0D1F80C80F1
:1007400008F1080C23E0D1F80C8008F10C0C1EE035
:1007500000BF00BF00BF00BF00BF00BFD1F80880CE
:10076000B8F1000F02D14FF0040C0BE0D1F8088073
:10077000B8F1010F03D14FF0080C146102E04FF003
:10078000080C546103E04FF0000C00E000BF00BF14
:10079000FF2801D8904601E002F104084646FF28F0
:1007A00002D84FEA830803E0A3F108084FEA88085B
:1007B0004746D6F800804FF00F0909FA07F928EAF2
:1007C00009080CFA07F900E07AE048EA0908C6F8D7
:1007D0000080D1F8048008F08058B8F1805F6FD1B4
:1007E00000BFDFF8DC81D8F8188048F00108DFF896
:1007F000D091C9F81880C846D8F8188008F00108C8
:10080000CDF8008000BF00BF4FEAB9384FEA930926
:1008100058F829504FEA83784FEA18794FF00F08BB
:1008200008FA09F825EA0805DFF89881424502D15F
:100830004FF0000824E0DFF89081424502D14FF0EC
:1008400001081DE0DFF88481424502D14FF0020823
:1008500016E0DFF87C81424502D14FF003080FE03B
:10086000DFF87081424502D14FF0040808E0DFF85C
:100870006881424502D14FF0050801E04FF00608BB
:100880004FEA83794FEA197908FA09F848EA050529
:10089000DFF848814FEA930948F82950D1F80480DD
:1008A00008F48038B8F5803F0BD1DFF83481D8F8F0
:1008B000008048EA0008DFF82891C9F800800AE0C3
:1008C00075E0DFF81C81D8F8008028EA0008DFF81E
:1008D0001091C9F80080D1F8048008F40038B8F508
:1008E000003F0ED1DFF8F88008F10408D8F8008046
:1008F00048EA0008DFF8E89009F10409C9F8008027
:100900000DE0DFF8DC8008F10408D8F8008028EA60
:100910000008DFF8CC9009F10409C9F80080D1F88B
:10092000048008F48018B8F5801F0ED1DFF8B0807D
:1009300008F10808D8F8008048EA0008DFF8A0901D
:1009400009F10809C9F800800DE0DFF8948008F18A
:100950000808D8F8008028EA0008DFF8849009F138
:100960000809C9F80080D1F8048008F40018B8F527
:10097000001F0ED1DFF8688008F10C08D8F800805D
:1009800048EA0008DFF8589009F10C09C9F800801E
:100990000DE0DFF84C8008F10C08D8F8008028EA58
:1009A0000008DFF83C9009F10C09C9F800805B1CD5
:1009B000102BFFF481AEBDE8F88700000000111095
:1009C0000010024000080140000C014000100140EE
:1009D0000014014000180140001C014008000140C3
:1009E0000004014001480068704700000400002036
:1009F00002480068401C014908607047040000205C
:100A000010B50848006840F010000649086003204F
:100A100000F05EF80F2000F007F800F019F8002051
:100A200010BD00000020024070B504460748006871
:100A30004FF47A71B0FBF1F5284600F0EEFB00228E
:100A40002146501E00F005F8002070BD0000002077
:100A500070472DE9F05F80460D461646002701F0ED
:100A60003FFA074639462A46334601F00700C0F1EF
:100A7000070ABAF1040F02D94FF0040A01E0C0F1ED
:100A8000070AD14600F1040ABAF1070F02D24FF06B
:100A9000000A01E0A0F1030AD4464FF0010A0AFA65
:100AA00009FAAAF1010A0AEA020A0AFA0CFA4FF054
:100AB000010B0BFA0CFBABF1010B0BEA030B4AEA3F
:100AC0000B042146404601F013FABDE8F09F0000F8
:100AD00000BF00F00702064B19684FF6FF031940EC
:100AE000044B0B4343EA0221014B196000BF7047DE
:100AF0000CED00E00000FA0570B504460D46002636
:100B00006248006800F00700A8420ED25F48006803
:100B100020F0070028435D4908600846006800F09F
:100B20000700A84201D0012070BD207800F002002B
:100B3000022807D15648406820F0F000A168084319
:100B400053494860207800F0010000285DD06068BB
:100B5000012806D14E48006800F4003090B9012009
:100B6000E2E76068022806D14948006800F000709A
:100B700040B90120D8E74648006800F0020008B9F3
:100B80000120D1E74248406820F003006168084333
:100B90003F494860FFF726FF06466068012810D1EC
:100BA00008E0FFF71FFF801B41F28831884201D91E
:100BB0000320B9E73648406800F00C000428F0D163
:100BC00023E06068022810D108E0FFF70BFF801BCC
:100BD00041F28831884201D90320A5E72C484068BA
:100BE00000F00C000828F0D10FE008E0FFF7FAFE53
:100BF000801B41F28831884201D9032094E72448C0
:100C0000406800F00C000028F0D12048006800F097
:100C10000700A8420ED91D48006820F007002843AD
:100C20001A4908600846006800F00700A84201D091
:100C3000012079E7207800F00400042807D1144847
:100C4000406820F4E060E16808431149486020787A
:100C500000F00800082808D10D48406820F46050D2
:100C6000216940EAC1000A49486000F03DF808499E
:100C70004968C1F30311074A515CC840064908603E
:100C80000F20FFF7D1FE00204EE7000000200240B9
:100C9000001002404C3300080000002001480068AA
:100CA000704700000000002000B5FFF7F7FF04497F
:100CB0004968C1F30221034A515CC84000BD0000ED
:100CC000001002405C33000800B5FFF7E7FF04495D
:100CD0004968C1F3C221034A515CC84000BD00000D
:100CE000001002405C330008F0B585B00FF2700CC4
:100CF0009CE8E01001A8A0E8E0101DA52D68009573
:100D0000002100240022002300201A4D696801F010
:100D10000C05FDB1042D02D0082D1AD101E01648B2
:100D20001AE001ADC1F38346AB5D01F480355DB1DE
:100D3000104D6D68C5F340451DF805400E4DB5FBDF
:100D4000F4F505FB03F202E00C4D03FB05F210463F
:100D500002E000BF084800BF00BF05B0F0BD0000C2
:100D600002030405060708090A0B0C0D0E0F1010EC
:100D7000010200000010024000127A0000093D004C
:100D8000F8B504460025207800F00100002878D04E
:100D9000F848406800F00C0004280CD0F548406882
:100DA00000F00C00082811D1F248406800F48030AF
:100DB000B0F5803F0AD1EF48006800F40030002809
:100DC0005FD0606800285CD10120F8BD00BF60687A
:100DD000B0F5803F06D1E748006840F48030E5492F
:100DE000086028E0606858B9E248006820F4803064
:100DF000E04908600846006820F4802008601AE096
:100E00006068B0F5A02F0BD1DA48006840F480206C
:100E1000D84908600846006840F4803008600AE05D
:100E2000D448006820F48030D24908600846006841
:100E300020F48020086000BF606888B1FFF7D2FD11
:100E4000054606E0FFF7CEFD401B642801D90320CC
:100E5000BBE7C848006800F400300028F2D010E07A
:100E6000FFF7C0FD054606E0FFF7BCFD401B642808
:100E700001D90320A9E7BF48006800F4003000282A
:100E8000F2D1207800F00200022857D1B94840681A
:100E900000F00C0050B1B748406800F00C00082882
:100EA00018D1B448406800F4803098B9B14800685F
:100EB00000F0020020B12069012801D0012084E760
:100EC000AC48006820F0F800616940EAC100A94917
:100ED000086033E02069E8B10120A7490860FFF706
:100EE00081FD054606E0FFF77DFD401B022801D984
:100EF00003206AE79F48006800F002000028F2D053
:100F00009C48006820F0F800616940EAC1009949F6
:100F1000086013E0002098490860FFF763FD05466C
:100F200006E0FFF75FFD401B022801D903204CE7D4
:100F30009048006800F002000028F2D1207800F00C
:100F4000080008282DD1A069B8B101208B4908609C
:100F5000FFF748FD054606E0FFF744FD401B022869
:100F600001D9032031E78348406A00F002000028DD
:100F7000F2D0012000F0D2FF13E000207F4908608A
:100F8000FFF730FD054606E0FFF72CFD401B022869
:100F900001D9032019E77748406A00F002000028D1
:100FA000F2D1207800F00400042873D100267148A3
:100FB000C06900F0805070B900BF6E48C06940F051
:100FC00080506C49C8610846C06900F080500090AC
:100FD00000BF00BF01266A48006800F48070B0B905
:100FE0006748006840F4807065490860FFF7FAFCC4
:100FF000054606E0FFF7F6FC401B642801D90320F4
:10100000E3E65F48006800F480700028F2D000BF7B
:10101000E068012806D15748006A40F001005549B0
:10102000086227E0E06858B95248006A20F00100E1
:10103000504908620846006A20F00400086219E07E
:10104000E06805280BD14B48006A40F0040049498C
:1010500008620846006A40F0010008620AE045485C
:10106000006A20F00100434908620846006A20F047
:101070000400086200BFE068A0B1FFF7B3FC0546BA
:1010800009E0FFF7AFFC401B41F28831884202D9EA
:1010900003209AE622E03748006A00F002000028A8
:1010A000EFD012E0FFF79EFC054608E0FFF79AFC40
:1010B000401B41F28831884201D9032085E62D4842
:1010C000006A00F002000028F0D1012E05D1294865
:1010D000C06920F080502749C86100BFE069C8B3EB
:1010E0002448406800F00C00082860D0E06902281D
:1010F00048D1002020490866FFF774FC054606E049
:10110000FFF770FC401B022801D903205DE6194857
:10111000006800F000700028F2D1206AB0F5803F2E
:1011200007D11448406820F40030A16808431149F1
:101130004860D4E9080108430E49496821F4741154
:1011400008430C49486001200B490866FFF74AFC38
:10115000054607E02DE0FFF745FC401B022801D9BA
:10116000032032E60348006800F000700028F2D047
:101170001FE0000000100240000042428004424292
:101180000070004000200C490866FFF72BFC054664
:1011900006E0FFF727FC401B022801D9032014E6D4
:1011A0000648006800F000700028F2D101E001203C
:1011B0000BE6002009E60000000042420010024059
:1011C00070B504460E4615460CB9012070BD94F862
:1011D0003D0028B9002084F83C00204600F01CF8AF
:1011E00004F108012068FFF709F93146A268206878
:1011F000FFF758F92946236BD4E90102FFF7DCF821
:10120000A168206850F8210040F00100A268216820
:1012100041F822000020D9E7704770B50446254602
:10122000681EB0F1807F01D301200FE0681E4FF0EF
:10123000E02148610F214FF0FF3000F059FE0020FF
:101240004FF0E021886107200861002070BD10B5D3
:1012500004460CB9012010BDA06900B100E000BF38
:1012600094F8390028B9002084F83800204600F0AE
:1012700027F8242084F839002068C06820F4005042
:101280002168C860204600F0BFFE2068006920F495
:101290009040216808612068406920F02A00216898
:1012A00048612068C06840F400502168C860002090
:1012B000E063202084F8390084F83A000020CAE76F
:1012C00010B586B0044600BF1E48806940F48040D7
:1012D0001C4988610846806900F48040019000BF85
:1012E00000BF00BF0846806940F0040088610846DE
:1012F000806900F00400019000BF00BF00BF0846F5
:10130000806940F0040088610846806900F00400AC
:10131000019000BF00BF48150290022003900120F9
:1013200004900320059002A90748FFF7BBF94FF48A
:10133000806002900020039002A90348FFF7B2F9F1
:1013400006B010BD00100240000801402DE9F8432E
:1013500004460D4616461F464FF0000994F83A0021
:10136000202860D105B116B90120BDE8F88300BF7F
:1013700094F83800012801D10220F6E7012084F812
:10138000380000BF0020E063222084F83A00FFF715
:1013900029FB8146A685E68539E0E08D401EE08583
:1013A000A068B0F5805F1BD14B460022202120466B
:1013B000009700F00DFF08B10320D6E7A84620698A
:1013C00038B920684068C0F30800A8F80000AD1CD8
:1013D0001DE020684068C0B2A8F800006D1C16E04F
:1013E0004B46002220212046009700F0F1FE08B174
:1013F0000320BAE7206920B92068406805F8010B8E
:1014000005E02068406800F07F0005F8010BE08DE2
:101410000028C2D1202084F83A0000BF002084F8C0
:10142000380000BFA1E702209FE72DE9F8430446FA
:101430000D4616461F464FF0000994F83900202843
:101440005CD105B116B90120BDE8F88300BF94F85E
:101450003800012801D10220F6E7012084F8380085
:1014600000BF0020E063212084F83900FFF7BAFABA
:101470008146A684E6842BE0E08C401EE084A068D0
:10148000B0F5805F16D14B460022802120460097A0
:1014900000F09EFE08B10320D6E7A846B8F8000089
:1014A000C0F3080021684860206908B9AD1C0FE04E
:1014B0006D1C0DE04B46002280212046009700F075
:1014C00087FE08B10320BFE715F8010B21684860CB
:1014D000E08C0028D0D14B460022402120460097C6
:1014E00000F076FE08B10320AEE7202084F8390032
:1014F00000BF002084F8380000BFA5E70220A3E762
:1015000000BFFEE720B14FF08051044A116003E0B4
:101510004FF48051014A11607047000010140140DF
:101520002DE9F04106460F4614461D462B4622463D
:101530003946304600F0C0F904FB05F0024909883D
:1015400000F0C6F8BDE8F0811A00002001B502E005
:101550000098401E009000980028F9D108BD0000B6
:101560002DE9F05F804689461646A6F120001FFA55
:1015700080FA1E49096889881C4A1268D28801FBD2
:1015800002F0C11700EB5171C1F3C707174800689B
:1015900000680AFB070B15480068C38813480068F9
:1015A00082884946404600F087F92C2000F02EFC46
:1015B000002416E0002510E01BF8040080212941DA
:1015C000084020B10A48008800F024FC03E00948E4
:1015D000008800F01FFC681CC5B2082DECDB601C05
:1015E000C4B2BC42E6DBBDE8F09F0000140000205E
:1015F000180000201A00002070B505460E4614465B
:1016000024E0284613490968898808441249098852
:10161000884205DD00250F480068C088304486B246
:1016200030460C490968C98808440C490988884231
:1016300001DD00250026227831462846FFF790FF7D
:10164000641C044800688088284485B220780028FB
:10165000D7D170BD140000200C0000200E00002027
:1016600010B54FF020401749086017484860002027
:10167000164908604860082088600020C86008613A
:1016800048614FF08050886100200E498860002139
:101690000C48C16008210161102141610021816174
:1016A000C16141624FF4805181620021C1620163D6
:1016B0004163816300F01CF8044A11460148FFF7BA
:1016C0007FFD10BD80000020040100A0C4000020A8
:1016D00070B504460D4600262C2000F097FB00BF95
:1016E00003E0284600F096FB761CA642F9D370BDB5
:1016F00000B585B000BF2B48806940F02000294923
:1017000088610846806900F02000009000BF00BF9B
:1017100000BF0846806940F0400088610846806943
:1017200000F04000009000BF00BF00BF0846806985
:1017300040F0800088610846806900F080000090D9
:1017400000BF00BF00BF0846406940F48070486198
:101750000846406900F48070009000BF00BF01207F
:1017600002900390032004908814019001A90E4870
:10177000FEF798FF0220019001A90C48FEF792FFA6
:10178000022002904CF6B370019001A90648FEF7C2
:1017900089FF4FF68070019001A90448FEF782FF8F
:1017A00005B000BD001002400014014000180140C7
:1017B00010B50446072C00DD10BD314804702046EA
:1017C00004EBD0714910A4EB410139B9F0202D4947
:1017D00008804FF4A0702C49088006E04FF4A070F8
:1017E00028490880F02028490880362000F00EFBA8
:1017F0002648008849F24131884205D1082141EA52
:10180000441000F007FB0AE02048008848F25251DB
:10181000884204D1002141EA441000F0FBFA2A205A
:1018200000F0F4FA002000F0F5FA002000F0F2FADF
:1018300014490988491EC1F3072000F0EBFA114949
:101840000978491EC8B200F0E5FA2B2000F0DEFA54
:10185000002000F0DFFA002000F0DCFA0A490988D5
:10186000491EC1F3072000F0D5FA07490978491E3F
:10187000C8B200F0CFFA2C2000F0C8FA00BF9BE7F6
:10188000100000200C0000200E000020120000209C
:1018900010B5FFF72DFFFFF7E3FE0120FFF732FE43
:1018A00000F0A0FA00F038F802480078FFF780FF57
:1018B00010BD0000100000202DE9F04104460D4647
:1018C00016461F462A2000F0A1FA201200F0A2FAC4
:1018D000E0B200F09FFAA119491EC1F30F2000F0F9
:1018E00099FAA119491EC8B200F094FA2B2000F011
:1018F0008DFA281200F08EFAE8B200F08BFAE9199E
:10190000491EC1F30F2000F085FAE919491EC8B23B
:1019100000F080FABDE8F08110B500F025FAFE492C
:1019200008800846008849F2413188427ED1CF20A4
:1019300000F06CFA002000F06DFA812000F06AFAE5
:10194000302000F067FAED2000F060FA642000F02B
:1019500061FA032000F05EFA122000F05BFA8120A9
:1019600000F058FAE82000F051FA852000F052FA11
:10197000102000F04FFA782000F04CFACB2000F055
:1019800045FA392000F046FA2C2000F043FA0020F6
:1019900000F040FA342000F03DFA062000F03AFA58
:1019A000F72000F033FA202000F034FAEA2000F0AB
:1019B0002DFA002000F02EFA002000F02BFAB120C2
:1019C00000F024FA002000F025FA1B2000F022FA93
:1019D000B62000F01BFA0A2000F01CFAA22000F04A
:1019E00019FAC02000F012FA352000F013FAC120D5
:1019F00000F00CFA112000F00DFAC52000F006FAF4
:101A0000452000F007FA452000F004FAC72000F056
:101A1000FDF9A22000F0FEF9F22000F0F7F9002015
:101A200000F0F8F9262000F0F1F900E096E001203E
:101A300000F0F0F9E02000F0E9F90F2000F0EAF9F9
:101A4000262000F0E7F9242000F0E4F90B2000F054
:101A5000E1F90E2000F0DEF9092000F0DBF9542056
:101A600000F0D8F9A82000F0D5F9462000F0D2F90E
:101A70000C2000F0CFF9172000F0CCF9092000F07D
:101A8000C9F90F2000F0C6F9072000F0C3F90020C3
:101A900000F0C0F9E12000F0B9F9002000F0BAF937
:101AA000192000F0B7F91B2000F0B4F9042000F071
:101AB000B1F9102000F0AEF9072000F0ABF92A20B0
:101AC00000F0A8F9472000F0A5F9392000F0A2F9AC
:101AD000032000F09FF9062000F09CF9062000F09A
:101AE00099F9302000F096F9382000F093F90F2092
:101AF00000F090F9362000F089F9C82000F08AF94A
:101B00002A2000F083F9002000F084F9002000F082
:101B100081F9002000F07EF9EF2000F07BF92B2006
:101B200000F074F9002000F075F9002000F072F95F
:101B3000012000F06FF93F2000F06CF93A2000F02E
:101B400065F9552000F066F9112000F05FF973483F
:101B5000FFF7FCFC292000F059F901E16E480088EC
:101B600048F252518842F8D1CF2000F04FF90020BE
:101B700000F050F9C12000F04DF9302000F04AF992
:101B8000ED2000F043F9642000F044F9032000F058
:101B900041F9122000F03EF9812000F03BF9E820E5
:101BA00000F034F9852000F035F9102000F032F90A
:101BB000782000F02FF9CB2000F028F9392000F030
:101BC00029F92C2000F026F9002000F023F9342018
:101BD00000F020F9022000F01DF9F72000F016F9BE
:101BE000202000F017F9EA2000F010F9002000F0A2
:101BF00011F9002000F00EF9C02000F007F92120B3
:101C000000F008F9C12000F001F9112000F002F9FC
:101C1000C52000F0FBF82D2000F0FCF8332000F088
:101C2000F9F8362000F0F2F8002000F0F3F83A203E
:101C300000F0ECF8552000F0EDF8B12000F0E6F8E7
:101C4000002000F0E7F8172000F0E4F8B62000F0DC
:101C5000DDF80A2000F0DEF8A22000F0DBF8F62024
:101C600000F0D4F8012000F0D5F8302000F0D2F8D0
:101C7000F22000F0CBF8002000F0CCF8262000F095
:101C8000C5F8012000F0C6F8E02000F0BFF8D02031
:101C900000F0C0F8002000F0BDF8022000F0BAF813
:101CA000072000F0B7F80B2000F0B4F81A2000F07D
:101CB000B1F8312000F0AEF8542000F0ABF840202D
:101CC00000F0A8F8292000F0A5F8122000F0A2F8F2
:101CD000122000F09FF8122000F09CF8172000F06E
:101CE00099F8E12000F092F8D02000F093F800205D
:101CF00000F090F8022000F08DF8072000F08AF83C
:101D0000052000F087F8252000F084F82D2000F051
:101D100081F8442004E0000012000020FCBF020013
:101D200000F078F8452000F075F81C2000F072F8FB
:101D3000182000F06FF8162000F06CF81C2000F05E
:101D400069F81D2000F066F8112000F05FF80548E2
:101D5000FFF7FCFB292000F059F82C2000F056F882
:101D600010BD0000FCBF020010B50024042000F0EC
:101D70004DF800BF1748008800BF1648008800F0E3
:101D80002BF804464FF6FF7000EA042400F024F814
:101D9000044348F25250844201D1204610BDD32062
:101DA00000F034F800BF0B48008800BF09480088E5
:101DB00000F012F804464FF6FF7000EA042400F029
:101DC0000BF8044349F24130844201D12046E5E753
:101DD0000020E3E70000026001480088704700002F
:101DE0000000026010B54FF400300749086040F66B
:101DF000FF20FFF7ABFB02200349086040F6FF20FD
:101E0000FFF7A4FB10BD0000101801404FF0C041C7
:101E10000880704701490880704700000000026098
:101E200001490880704700001A000020014908801D
:101E3000704700001800002000B585B000BF24489E
:101E4000806940F00800224988610846806900F0F6
:101E50000800009000BF00BF00BF0846806940F046
:101E6000080088610846806900F00800009000BF03
:101E700000BF00BF0846806940F00800886108463E
:101E8000806900F00800009000BF00BF2020019092
:101E90000120029003900320049001A90D48FEF751
:101EA00001FC0120019001A90A48FEF7FBFB02207A
:101EB000019001A90748FEF7F5FB202005491031E4
:101EC0000860012008600220086005B000BD000025
:101ED00000100240000C014000BFFEE77047000008
:101EE00002480068C0F30220704700000CED00E0DB
:101EF00010B5002807DA0A07140E054A00F00F0390
:101F00001B1FD45403E00A07130E024A135410BDDA
:101F100018ED00E000E400E07047000008B5084953
:101F20000968C9084FF47A72B1FBF2F1414300919C
:101F300000BF00BF00994A1E00920029F9D108BDD8
:101F400000000020704710B5FEF752FD10BD00B52F
:101F50008FB014210AA8FEF730F928216846FEF751
:101F60002CF9012000900004019000200290022032
:101F70000790C10308914FF4E01109916846FEF7FC
:101F8000FFFE08B100BFFEE70F200A9002200B9071
:101F900000200C900E904FF480600D9002210AA852
:101FA000FEF7AAFD08B100BFFEE70FB000BD0000BC
:101FB0001148006840F001000F4908600846406879
:101FC0000E4908400C494860084600680C49084022
:101FD000094908600846006820F480200860084627
:101FE000406820F4FE0048604FF41F008860C8037A
:101FF0000449086070470000001002400000FFF82C
:10200000FFFFF6FE08ED00E02DE9F0410446002553
:102010002068006920F44050E168084321680861A5
:102020002169A06808436169084305432068C068C6
:1020300041F20C61884328432168C86020684069E8
:1020400020F44070A1690843216848615F49206815
:1020500088425CD1FEF738FE00EBC00101EB0010B6
:1020600061688900B0FBF1F6FEF72EFE00EBC001BF
:1020700001EB001061688900B0FBF1F06421B0FB56
:10208000F1F000EBC00101EB0010A6EB8000322163
:1020900001EB00106421B0FBF1F000F0F006FEF758
:1020A00013FE00EBC00101EB001061688900B0FB7A
:1020B000F1F06421B0FBF1F006EB0016FEF704FE30
:1020C00000EBC00101EB001061688900B0FBF1F783
:1020D000FEF7FAFD00EBC00101EB0010616889001A
:1020E000B0FBF1F06421B0FBF1F000EBC00101EBBB
:1020F0000010A7EB8000322101EB00106421B0FB3F
:10210000F1F000F00F003044216888605BE0FEF7DA
:10211000CBFD00EBC00101EB001061688900B0FB52
:10212000F1F6FEF7C1FD00EBC00101EB00106168A4
:102130008900B0FBF1F06421B0FBF1F000EBC001CD
:1021400001EB0010A6EB8000322101EB00106421AE
:10215000B0FBF1F000F0F006FEF7A6FD00EBC001C9
:1021600001EB001061688900B0FBF1F06421B0FB65
:10217000F1F006EB0016FEF797FD00EBC00101EB56
:10218000001061688900B0FBF1F7FEF78DFD00EBF0
:10219000C00101EB001061688900B0FBF1F064211F
:1021A000B0FBF1F000EBC00101EB0010A7EB8000E9
:1021B000322101EB00106421B0FBF1F000F00F00C0
:1021C000304421688860BDE8F0810000003801409B
:1021D0002DE9F04104460D4617469846069E21E03B
:1021E000701CF8B12EB1FEF7FDFBA0EB0800B04269
:1021F00018D92068C06820F4D0702168C8602068B1
:10220000406920F0010021684861202084F83900ED
:1022100084F83A0000BF002084F8380000BF032093
:10222000BDE8F081206800682840A84201D1012063
:1022300000E00020B842D3D00020F1E700BFFEE765
:102240000FB4054B10B503A9044A029800F030F80A
:1022500010BC5DF814FB0000552900081C0000208C
:102260000FB41CB50246002007AC00290BD0491E54
:10227000CDE90021054B6A462146069800F018F882
:10228000009A002111701CBC5DF814FBF3250008B6
:1022900002E008C8121F08C1002AFAD1704770472F
:1022A000002001E001C1121F002AFBD1704700008D
:1022B0002DE9FF4F8BB088460546002606E025280D
:1022C0000BD0DDE90D1290476D1C761C2878002894
:1022D000F5D10FB03046BDE8F08F0024A146A246EC
:1022E0000122AE4900E0044315F8013F203B02FA09
:1022F00003F00842F7D128782A2810D06FF02F0277
:102300002878A0F13001092915D809EB890102EBE1
:10231000410144F0020400EB01096D1CF0E758F89C
:10232000041B5FEA010903D544F40054C9F1000914
:1023300044F002046D1C28782E2817D115F8010FDF
:1023400044F004042A280ED06FF02F022878A0F160
:10235000300109290AD80AEB8A0102EB410100EB9E
:10236000010A6D1CF2E758F804AB6D1C28786C2844
:102370000FD006DC4C2817D068280DD06A2814D15D
:1023800004E0742810D07A280FD10DE044F4001432
:102390000AE044F4801401E044F440146978814276
:1023A00002D104F580146D1C6D1C2878692865D055
:1023B00006DC00288DD0632827D0642806D15DE094
:1023C0006E2808D073282AD0752877D0DDE90D1241
:1023D0009047761CE0E0C4F30250022809D003289D
:1023E0000DD0D8F8001004280DD00E6008F10408B4
:1023F000D2E0D8F80010F217C1E90062F6E7D8F889
:1024000000100E80F2E70E70F0E718F8041B8DF84C
:10241000001000208DF80100EB46012003E058F881
:1024200004BB4FF0FF3061074FF0000701D40AE012
:102430007F1C57450DDA8742FADB1BF8071000298D
:10244000F6D106E07F1C8742FCDB1BF80710002951
:10245000F8D1DDE90D23A9EB07008146214600F004
:10246000B1F83044C61904E0DDE90D121BF8010B88
:1024700090477F1EF8D22146484688E058F8040B62
:10248000C4F302514FF00A0B032900D100B2042912
:1024900000D140B2002802DA40422D2102E021059D
:1024A00005D52B218DF82410012104E006E0E10779
:1024B00010D02021F6E708AF089113E058F8040B7C
:1024C000C4F302514FF00A0B032900D180B2042952
:1024D00000D1C0B20021EEE75946FDF779FE303158
:1024E00007F8011D0028F7D1ADEB070000F1200B24
:1024F000600702D524F4803401E04FF0010ADA4588
:1025000002DDAAEB0B0000E00020824600EB0B018D
:1025100008980144A9EB01000A90E00306D4DDE924
:102520000D2321460A9800F04DF806444FF00009AB
:1025300008E009A911F80900DDE90D12904709F139
:102540000109761C08998945F3DBE0030CD5DDE928
:102550000D2321460A9800F035F8064404E0DDE931
:102560000D1230209047761CBAF10001AAF1010A41
:10257000F5DC05E0DDE90D1217F8010B9047761C3C
:10258000BBF10001ABF1010BF4DC0A982146DDE957
:102590000D2300F005F806446D1C97E6092801009C
:1025A0002DE9F041044600251E461746880404D450
:1025B00005E039462020B0476D1C641EF9D5284639
:1025C000BDE8F0812DE9F041044600251E46904605
:1025D000C80301D5302700E02027880404D505E092
:1025E00041463846B0476D1C641EF9D52846BDE803
:1025F000F0814A68002A06D00A68531C0B601070EC
:102600004868401E4860704770B504469420005BDF
:1026100000EB40008500D01AA84201D2072070BD0F
:10262000C4F8B814C4F8BC24C4F8C034CE18C4F834
:10263000C4640020F3E700002DE9F04105460E4692
:10264000164CDFF85C8005B11EB94FF0FF30BDE8D5
:10265000F08114492068884203D16068B0F1A53F39
:1026600002D04FF0FF30F2E7A06818B1A068B0F5D3
:10267000704F02D94FF0FF30E9E74046A16800F003
:10268000B5F80746E068B84202D04FF0FF30DEE709
:10269000C5F80080A06830600020D8E700F0070887
:1026A0000000070848424D312DE9F04385B0074648
:1026B000FEF798F9814600200190009027E00A215A
:1026C000684600F0D5FB00B121E09DF805008DF8CB
:1026D00004009DF806008DF805009DF807008DF8B0
:1026E00006009DF800008DF807009DF804004828BA
:1026F0000CD19DF80500552808D19DF806005028FA
:1027000004D19DF80700312800D106E000BFFEF794
:1027100069F9A0EB0900B842D1D300BFFEF762F916
:10272000A0EB0900B84203D3012005B0BDE8F08357
:10273000002409E002A908194FF47A7100F098FB0F
:1027400008B10220F1E7641C0A2CF3D39DF80800BD
:10275000012801D00220E8E70DF10A0000F067FB34
:1027600005460DF10E0000F062FB064615B1B5F509
:10277000704F01D90320D8E7002409E00F49081958
:102780004FF47A7100F074FB08B10320CDE7641CAC
:10279000AC42F3D32946094800F028F88046B045FA
:1027A00001D00420C1E732462946044800F044F82D
:1027B00008B10520B9E70620B7E70000E0030020D4
:1027C000024692F89000884201DC09207047002000
:1027D000FCE710B504460020208060602072E060B5
:1027E000802104F11000FDF7E8FC10BD2DE9F04157
:1027F00005460E464FF0FF37002405E0295D3846B8
:1028000000F008F80746641CB442F7D3F843BDE86B
:10281000F081000010B54840002207E000F00104FC
:102820006342044C1C4084EA5000521C082AF5D331
:1028300010BD00002083B8EDF0B595B005460C46FC
:1028400016460020109004F2FF70C70A0020119075
:102850001290139014901190264813901497FDF73E
:102860000BFF18B14FF0FF3015B0F0BD10A911A843
:10287000FDF748FE20B1FDF79DFE4FF0FF30F3E776
:10288000224629461B4800F03BF820B1FDF792FE96
:102890004FF0FF30E8E7184813900120149010A97A
:1028A00011A8FDF72FFE20B1FDF784FE4FF0FF3099
:1028B000DAE720216846FDF780FC104800904FF0D1
:1028C000A5300190029403960120049020226946CD
:1028D00008A8FDF759FC202208A9074800F010F8C5
:1028E00020B1FDF767FE4FF0FF30BDE7FDF762FE58
:1028F0000020B9E70000070800F0070848424D3102
:102900002DE9F84306460F46154600241DE04FF01A
:10291000FF300090A5EB0408B8F1040F01D30420A8
:1029200000E04046814639194A466846FDF72CFCCE
:10293000311900230220009AFDF746FE18B14FF02E
:10294000FF30BDE8F883241D00BFAC42DFD3002078
:10295000F7E7000013B50C464FF47A73012269467D
:102960000248FEF762FD00981CBD000040000020F8
:1029700010B504462046FDF7B6FD10BD10B5FFF7B3
:102980005BFAFDF74FFCFEF783FF0620FEF710FF12
:102990000020FFF745FA4FF6FF70FFF747FA0748A8
:1029A00003880748028800210846FEF7B9FD012088
:1029B0000449086004A000F071F810BD0E0000206A
:1029C0000C000020100C01405B564D5D206631303C
:1029D000332068616C20696E6974000020B14FF487
:1029E0008031034A116002E00121014A1160704701
:1029F000100C014070B59AB004460D4623460AA259
:102A0000602102A80095FFF72BFC0646002E01DC92
:102A10001AB070BD02A908A0FFF712FC02A800F0CE
:102A20003DF800BFF4E700005B564D5D20257320A4
:102A30003D2025640000000025730D0A0000000001
:102A400010B5FDF7CFFF10BD0146032221EA0200B9
:102A500008B9012070470020FCE702460AB10A29A4
:102A600001D2002070470120FCE7000070B5044649
:102A70004FF6FF7000EA041506480088854200DB27
:102A800070BD10230448028829460020FEF748FD47
:102A900000BFF5E70E0000200C00002070B50446D2
:102AA000124800884FF6FF7101EA001510480088AF
:102AB00085420BDB00200D49088000250C48038867
:102AC0000C48028800210846FEF72AFD07480088C6
:102AD000FFF7CCFF224629460020FEF78DFD034874
:102AE0000088401C0149088070BD000008000020DB
:102AF0000E0000200C000020ADF59A6D00253D4829
:102B000001903D4800680090FDF77AFFFFF71FFA3B
:102B1000FFF734FF012139A0FFF76CFF40F2DC50D2
:102B2000FFF7C2FD0646314636A0FFF763FF694650
:102B300001A8FFF781FD20B9012135A0FFF75AFF59
:102B400008E02C4801902C4800680090002130A03B
:102B5000FFF750FF02A8DDE9002100F061FA04460A
:102B60002CB121462CA0FFF745FF00BFFEE7012155
:102B70002CA0FFF73FFF3BE002A8DDE9002100F0B9
:102B80004FFA044644B1214623A0FFF733FF4FF428
:102B90007A70FFF7EDFE2BE0254902A800F07BFAE2
:102BA000044644B1214623A0FFF724FF4FF47A7076
:102BB000FFF7DEFE1CE022A00599FFF71BFF05983A
:102BC00090B10DB9012000E0002005462846FFF72E
:102BD00005FF29461DA0FFF70DFFFFF731FF074650
:102BE00039461CA0FFF706FF6420FFF7C1FE00BFB7
:102BF000C2E70000DC6E0008846F0008766D5F623B
:102C00006F6F7400626C5F757064617465000000C2
:102C1000626C5F736C6F7400766D5F6C6F61645F84
:102C200065727200766D5F6C6F61646564000000B0
:102C3000A0860100766D5F72756E5F65727200002E
:102C4000766D5F72657476616C0000006C65645F20
:102C50006F6E00007469636B5F6D73002DE9F04166
:102C600005460C4616461F4631462046FFF7F5FE40
:102C700010B90120BDE8F0812078482808D160789B
:102C8000422805D1A078432802D1E078312801D02C
:102C90000220EFE72079012801D00320EAE76079DC
:102CA00085F89000A01D00F0BCF89221485304F173
:102CB000080000F0B6F89421485395F8900018B138
:102CC00095F89000202801DD0420D3E79220405B96
:102CD000202801DD0520CDE79420405B08B90420C1
:102CE000C8E70A2038600020C4E72DE9F05F0646F7
:102CF000884691461C46002744E02068A9EB000B5B
:102D0000BBF1030F02D20720BDE8F09F206818F83E
:102D100000A02168491C01EB080000F082F805467C
:102D20002068C01C206096F89000504501DC092006
:102D3000EAE71F2D01DD0620E6E72068A9EB000089
:102D4000A84201D20720DFE707EB471106F1960002
:102D500000F801A0226802EB080107EB47130246C6
:102D60001A44501C2A46FDF70FFA002107EB4712C0
:102D700006F196001044401C41552068284420600C
:102D8000781C87B29220805BB842B6DC0020BBE79B
:102D90002DE9F04180460C4615461E46069F1CB1A3
:102DA0003E600020BDE8F0813A462946404600F0EA
:102DB0004AF8F7E7014608784A7840EA02208A781C
:102DC00040EA0240CA7840EA02607047FEB5054614
:102DD0000F46164606EB4601D7F8C40400EB810403
:102DE00020788DF8000060788DF80100A0788DF8CB
:102DF0000200E0788DF8030020798DF804006079F6
:102E00008DF80500A01D00F00CF8ADF8060004F1E7
:102E10000800FFF7CFFF02909DE8070085E8070054
:102E2000FEBD014608784A7840EA02207047014614
:102E300008784A7840EA02208A7840EA0240CA7854
:102E400040EA026070472DE9F04107460C461546FE
:102E500021463846FFF7B4FC064616B13046BDE8B9
:102E6000F08107F1100050F8240028600020F6E7F8
:102E700070B504460D462B46012221460448FEF754
:102E800065FA08B9002070BD4FF0FF30FBE7000085
:102E90004000002070B505460E4614462079FFF725
:102EA000D3FD08B9042070BD607908B10420FAE7A9
:102EB00020780D2873D2DFE800F0070A1E1F2021BA
:102EC0002223244B515E080000BF0020EBE761780D
:102ED0002846FFF775FC08B10920E4E7207900F0E7
:102EE000020030B9A1782846FFF76AFC08B1092032
:102EF000D9E70020D7E700BF00BF00BF00BF00BF79
:102F000000BF61782846FFF75BFC08B10920CAE7DB
:102F1000207900F0010030B9A1782846FFF750FC75
:102F200008B10920BFE7207900F0020030B9E1784C
:102F30002846FFF745FC08B10920B4E720780128AE
:102F400004D02079032801D10420ACE70020AAE7AF
:102F5000207908B10420A6E70020A4E7207908B171
:102F60000420A0E7A1782846FFF72AFC08B1092031
:102F700099E7002097E7207900F0020008B10420CB
:102F800091E7207900F0010038B9A1782846FFF7D1
:102F900017FC10B1092086E701E0002083E70B2031
:102FA00081E7FEB50446002520E02A462146684612
:102FB000FFF70CFF6A4629462046FFF76BFF0646DF
:102FC0000EB13046FEBD9DF80000092803D09DF8E3
:102FD00000000A2807D1BDF806109420005B81424A
:102FE00001DB0C20EEE7681C85B200BF9420005B7B
:102FF000A842DADC0020E5E710B5044604B910BDAC
:103000004FF499612046FDF7D8F800202072002186
:10301000C4F8B814C4F8BC14C4F8C01400BFEEE778
:10302000F8B505460E4617460020009005B10EB9CA
:103030000120F8BD2846FFF7DFFF6B463A463146D0
:103040002846FFF70BFE044614B12C722046F0E729
:103050006B463A4631462846FFF747FE044614B110
:103060002C722046E5E73A4631462846009BFFF79A
:10307000CBFA044614B12C722046DAE72846FFF753
:1030800090FF044614B12C722046D2E72846FFF781
:10309000A0FB0020CDE7F0B589B004460E4600271E
:1030A00014B9012009B0F0BDD4F8C40408B9012056
:1030B000F8E743E1002005900490039021889420D4
:1030C000005B814203DB08202072207AEAE7228835
:1030D00021466846FFF77AFE9DE8070006AB07C366
:1030E0009DF818000D287DD2DFE800F0070B383975
:1030F0003A3B3C3D3EDEE2F9F3002088401C208054
:1031000012E19DF819102046FFF75AFB054615B14C
:1031100025722846C6E79DF81C0000F0020038B171
:103120009DF8192004F11000089940F8221011E0D0
:103130009DF81A1003AA2046FFF785FE054615B133
:1031400025722846AEE79DF8192004F11000039976
:1031500040F822102088401C2080E5E000BF00BF1E
:1031600000BF00BF00BF00BF9DF819102046FFF749
:1031700027FB054615B12572284693E705A8009060
:103180009DF81A209DF81C0000F001012046089BC4
:10319000FFF7FEFD054615B12572284682E704A813
:1031A00000909DF81B209DF81C0000F002012046B5
:1031B000089BFFF7EDFD054615B12572284671E71E
:1031C0009DF81800022808D1DDE9041001449DF89B
:1031D000192004F1100040F822109DF8180003286F
:1031E0000AD100E09CE0DDE90410411A9DF81920A5
:1031F00004F1100040F822109DF81800042808D1AE
:10320000DDE9041048439DF8192004F1100141F84C
:1032100022009DF8180005280FD1049818B90A203B
:103220002072207A3EE7DDE9041090FBF1F19DF871
:10323000192004F1100040F822109DF8180006280B
:103240000CD1DDE90410884201D1012100E0002108
:103250009DF8192004F1100040F822109DF8180084
:1032600007280CD1DDE90410884201DD012100E0CE
:1032700000219DF8192004F1100040F822109DF85B
:10328000180008280CD1DDE90410884201DA012178
:1032900000E000219DF8192004F1100040F82210F0
:1032A0002088401C20803FE0BDF81E0020803BE0CD
:1032B0009DF81A1003AA2046FFF7C5FD054615B173
:1032C00025722846EEE6039828B9BDF81E00208036
:1032D00004E01FE003E02088401C208024E09DF8EB
:1032E0001C0000F0010010B10898E0600CE09DF8AF
:1032F0001A1003AA2046FFF7A6FD054615B1257250
:103300002846CFE60398E060012060602088401CDA
:10331000208009E0012060602088401C208003E0BC
:103320000B202072207ABDE600BF7F1C2EB1B74271
:1033300003D90D202072207AB4E600BF606800280F
:103340003FF4B8AE0020207200BFABE600000000E2
:103350000000000001020304060708090000000045
:103360000102030400000000000000000000000053
:1033700000000000000000181818181818080008AD
:103380001800000000000034242424000000000085
:10339000000000000000000016247F2424247E2466
:1033A00024000000000000083E6848681C16121245
:1033B0007C10100000000061D29674081016294994
:1033C000C6000000000000003C646438724ACE462B
:1033D0007F0000000000001818181800000000000E
:1033E00000000000000000040818103030303010D9
:1033F00010180C04000000201008080C0404040C31
:1034000008181020000000080A341C6A0800000098
:10341000000000000000000000001818187F1818B5
:10342000180000000000000000000000000000186C
:10343000180830000000000000000000003C000000
:103440000000000000000000000000000000001864
:10345000180000000000000206040C0808101020EC
:1034600020400000000000003C6642475B7342665B
:103470003C00000000000000187848080808080810
:103480007E000000000000003C46060604081020F4
:103490007E000000000000007C0606043C020206DC
:1034A0007C000000000000000C1C14246444FF0495
:1034B00004000000000000007E6060607E020206E2
:1034C0007C000000000000001E306048764242622E
:1034D0003C000000000000007E0206040C081810EA
:1034E00030000000000000003C6242361C66424290
:1034F0003C000000000000003C664242661A0204E4
:1035000078000000000000000000181800000018FB
:10351000180000000000000000001818000000184B
:103520001808300000000000000004183060100C83
:103530000600000000000000000000007E007E0089
:1035400000000000000000000000301804060C100D
:1035500020000000000000301C06060618100010B5
:10356000100000000000001C224141DDB5A5A5AF00
:1035700094C0403C00000000181C342426627E43A6
:10358000C1000000000000007C4642467C424242EE
:103590007C000000000000001E20404040404060D1
:1035A0003E000000000000007C4642434343424688
:1035B00078000000000000007E6060607E60606057
:1035C0007E000000000000007E6060607E60606041
:1035D00060000000000000001E604040CE424262D9
:1035E0003E00000000000000424242427E42424251
:1035F00042000000000000007E1818181818181863
:103600007E000000000000007C0404040404044464
:1036100078000000000000004244485070584C44BC
:103620004200000000000000202020202020202058
:103630003E000000000000006266675F5B5BC1C186
:10364000C100000000000000626272525A4A4E46F9
:1036500046000000000000003C6243C3C3C3436255
:103660003C000000000000007C464242467840409A
:1036700040000000000000003C6243C3C3C343623B
:103680003C180F00000000007C6662667C6C64667B
:1036900062000000000000003E6040601C06020264
:1036A0007C000000000000007F1818181818181877
:1036B00018000000000000004242424242424262C2
:1036C0003C00000000000000C14342622624341C7C
:1036D0001800000000000000C1C141495B5B766634
:1036E000660000000000000043663418181C2466C1
:1036F000C300000000000000C14266341C18181806
:1037000018000000000000007E02040C1810206069
:103710007E0000000000001C10101010101010108F
:103720001010101C000000402020101008080C048D
:10373000060200000000003C0C0C0C0C0C0C0C0CE5
:103740000C0C0C3C00000000181C2462000000005F
:103750000000000000000000000000000000000069
:10376000000000FF0000002010000000000000002A
:10377000000000000000000000003C06023E42463F
:103780007A0000000000004040405C624242424239
:103790007C0000000000000000001E20604060204F
:1037A0003E0000000000000202023E624242426609
:1037B0003A0000000000000000003C62427E4060D1
:1037C0003E0000000000000F1810107E10101010B6
:1037D000100000000000000000003F6642665840F4
:1037E0003E43423C0000004040405C624242424254
:1037F00042000000000000181800780808080808B7
:103800007E000000000000040C007C04040404049A
:1038100004040C78000000606060626C787068647A
:10382000620000000000007808080808080808087E
:103830007E000000000000000000764B4B4B4B4B1D
:103840004B0000000000000000005C624242424267
:10385000420000000000000000003C62424342625F
:103860003C0000000000000000005C624242424256
:103870007C4040400000000000003E624242426640
:103880003A0202020000000000006E726360606095
:10389000600000000000000000003E20203C060206
:1038A0007C000000000000001010FE10101010102E
:1038B0001E0000000000000000004242424242663A
:1038C0003A00000000000000000043426624341863
:1038D00018000000000000000000C1C15B5A5E66D5
:1038E0006600000000000000000062261C181C2674
:1038F0006200000000000000000043426624341C07
:10390000181830E00000000000007E060C1810209F
:103910007E0000000000000E181010103070101013
:103920001010180E00000808080808080808080801
:103930000808080800000030180808080C0E0808DD
:10394000080818300000000000000000714B06005D
:103950000000000000000000000000000000000067
:103960000000000000000000000000000000000057
:103970000000000000000000000000000000000047
:1039800000000000000000000000000000000380B4
:10399000018001800180018001800180018001801F
:1039A00001800000000003C003C000000000000010
:1039B00000000000000000000000000000000E7089
:1039C0000E700E700C3000000000000000000000BF
:1039D00000000000000000000000000000000000E7
:1039E00000000000000000000000000000000000D7
:1039F0000618063806307FFE0C300C300C300C30C8
:103A00007FFE0C601C601860186000000000000061
:103A100000000000000000000000000000C000C026
:103A20000FF83CC831C031803D801F8003F001F8A1
:103A3000031C030C031C3FF83FE0070006000000D6
:103A40000000000000000000000000001C007E0ECE
:103A5000630C631863307E6000C001800300077C44
:103A60000EE61CC618C630C6607C000000000000D0
:103A700000000000000000000000000000000FE057
:103A80001CF0387038701C601FC00F003F8C71CC68
:103A900060EC607C70383CFC1FCE00000000000031
:103AA000000000000000000000000000000003C053
:103AB0000180018001800000000000000000000083
:103AC00000000000000000000000000000000000F6
:103AD000000000000000000000000000003000E0D6
:103AE00001C0018003000700060006000E000E0062
:103AF0000E000E00060007000300038001C000E076
:103B00000030000000000000000000000C00060073
:103B10000380018001C000E0006000600070007060
:103B200000700060006000E000C0018003800600BB
:103B30000C000000000000000000000000000180F8
:103B400011881DB803C007E03DBC0188018000005A
:103B50000000000000000000000000000000000065
:103B60000000000000000000000000000000000055
:103B700000000000018001800180018001807FFE43
:103B80000180018001800180000000000000000031
:103B90000000000000000000000000000000000025
:103BA0000000000000000000000000000000000015
:103BB0000000000003C003C001C001C003801F005B
:103BC00000000000000000000000000000000000F5
:103BD00000000000000000000000000000000FF0E6
:103BE00000000000000000000000000000000000D5
:103BF00000000000000000000000000000000000C5
:103C000000000000000000000000000000000000B4
:103C10000000000003C003C003C00000000000005B
:103C2000000000000000000000000000000000187C
:103C300000380030006000E000C001C001800300D7
:103C4000030006000E000C001C00180030000000ED
:103C500000000000000000000000000000000180E3
:103C60000FF01C38381C301C707E70EE738E7E0E88
:103C70007C0C300C381C1E780FE0000000000000A7
:103C80000000000000000000000000000000000034
:103C900007C01FC039C001C001C001C001C001C0C0
:103CA00001C001C001C03FFC3FFC0000000000005B
:103CB0000000000000000000000000000000038081
:103CC0001FF018380038001800380038007001E084
:103CD000038007001C003FFC3FFC000000000000C8
:103CE000000000000000000000000000000007804D
:103CF0001FF0003800380038003007E007F00038C7
:103D0000001C001C001820F83FE00000000000002C
:103D100000000000000000000000000000000000A3
:103D200000F001B0033007300E301C3038307030F6
:103D30007FFE7FFE003000300030000000000000F9
:103D40000000000000000000000000000000000073
:103D50001FF818001800180018001FE000F8001CD9
:103D6000001C001C003800F01FC000000000000014
:103D70000000000000000000000000000000000043
:103D800003F80F001C001800300037F83C3C300CE2
:103D9000300C380C381C1E380FF0000000000000FA
:103DA0000000000000000000000000000000000013
:103DB0003FFC001C001800380070006000E001C0EB
:103DC00001800380070006000E00000000000000D4
:103DD000000000000000000000000000000003C020
:103DE0001FF8381C381C381C1C380FF007F01C78E2
:103DF000381C300C381C3C380FF00000000000006C
:103E0000000000000000000000000000000003802F
:103E10001FF03838301C701C700C380C1FFC0FCC95
:103E2000001C001800701FE01F8000000000000050
:103E30000000000000000000000000000000000082
:103E400000000000000003C003C00180000000006B
:103E50000000000003C003C003C000000000000019
:103E60000000000000000000000000000000000052
:103E700000000000000003C003C00180000000003B
:103E80000000000003C003C001C001C003800F0098
:103E90000000000000000000000000000000000022
:103EA00000000000003800F001C007001E003800CC
:103EB0000E00078001C0007000300000000000000C
:103EC00000000000000000000000000000000000F2
:103ED000000000000000000000003FFC00000000A7
:103EE0003FFC3FFC0000000000000000000000005C
:103EF00000000000000000000000000000000000C2
:103F0000000000001C000F00038001E00078001C8E
:103F1000007001E003800E000C00000000000000B3
:103F200000000000000000000000000000000FC0C2
:103F300000F0003800380038003803F00380030038
:103F40000300000000000780078000000000000060
:103F500000000000000000000000000000E007F882
:103F60000C0C18063006700363F36633C673CC631B
:103F7000CC62CC66CCE6C7FCE00060007000381074
:103F80001FF0000000000000000000000000000022
:103F900003C007E006E00E700E700C301C381818D5
:103FA0003FFC3FFC700E600EE007000000000000C8
:103FB0000000000000000000000000000000000001
:103FC0003FF03838381C381C38383FF03FF8381C80
:103FD000380C380C381C3FF83FE0000000000000AF
:103FE000000000000000000000000000000000E0F1
:103FF00007FC1E04380038003000700070007000AC
:10400000300038003C001F9C07FC0000000000004E
:1040100000000000000000000000000000000000A0
:104020003FF03078301C300C300E300E300E300E39
:10403000300E301C30383FF03FC000000000000060
:104040000000000000000000000000000000000070
:104050001FF818001800180018001FF81FF81800A3
:104060001800180018001FF81FF8000000000000DA
:104070000000000000000000000000000000000040
:104080001FF818001800180018001FF81FF8180073
:1040900018001800180018001800000000000000A8
:1040A000000000000000000000000000000000F020
:1040B00007FC1E04380030007000700070FC700CAB
:1040C000700C300C380C1F1C07FC000000000000B6
:1040D00000000000000000000000000000000000E0
:1040E000300C300C300C300C300C3FFC3FFC300CF2
:1040F000300C300C300C300C300C00000000000094
:1041000000000000000000000000000000000000AF
:104110003FFC0180018001800180018001800180DD
:104120000180018001803FFC3FFC00000000000096
:10413000000000000000000000000000000000007F
:104140001FF0003000300030003000300030003010
:104150000030003000701DE01FC0000000000000B3
:10416000000000000000000000000000000000004F
:10417000381C387038E039C03B803F003F003B803E
:1041800039C038E038703838381C000000000000B2
:10419000000000000000000000000000000000001F
:1041A0001C001C001C001C001C001C001C001C002F
:1041B0001C001C001C001FFC1FFC00000000000075
:1041C00000000000000000000000000000000000EF
:1041D000381C7C3C6C3E6E6E666E66CE63C6638633
:1041E0006186600660066006600600000000000050
:1041F00000000000000000000000000000000000BF
:104200003C0C3C0C3E0C360C330C338C318C31CCDA
:1042100030EC306C307C303C301C00000000000082
:10422000000000000000000000000000000001C0CD
:104230000FF81C3C381C700E700E60066006700E85
:10424000700E700C381C1E780FE00000000000009B
:10425000000000000000000000000000000000005E
:104260003FF0383C381C380C380C381C38783FE0AC
:104270003800380038003800380000000000000026
:10428000000000000000000000000000000001C06D
:104290000FF81C3C381C700E700E60066006700E25
:1042A000700E700C381C1E780FE0018001C000FFFA
:1042B000003C0000000000000000000000000000C2
:1042C0003FF0383838183818383838F03FC038E000
:1042D000387038383838381C380E000000000000BC
:1042E000000000000000000000000000000001E0ED
:1042F0000FF83800380038003C001F8003F00078C9
:10430000001C001C001C38783FE00000000000008A
:10431000000000000000000000000000000000009D
:104320007FFE018001800180018001800180018089
:1043300001800180018001800180000000000000F8
:10434000000000000000000000000000000000006D
:10435000300C300C300C300C300C300C300C300C7D
:10436000300C300C381C1C380FF00000000000002E
:10437000000000000000000000000000000000003D
:10438000E006700E700E381C381C1C181C380C30DF
:104390000E70066007E003C003C0000000000000CC
:1043A000000000000000000000000000000000000D
:1043B00060066006600660066186638673C673CE1B
:1043C000766C366C3C3C3C3C381C00000000000025
:1043D00000000000000000000000000000000000DD
:1043E000301C38181C380E7007E003C003C007E00B
:1043F0000E701C381838381C700E000000000000C9
:1044000000000000000000000000000000000000AC
:10441000700E700C381C1C380E70066007E003C06C
:104420000180018001800180018000000000000007
:10443000000000000000000000000000000000007C
:104440003FFC001C0038007000E001C00380070042
:104450000E000C0018003FFC3FFC000000000000B4
:1044600000000000000000000000000007F007F05E
:10447000060006000600060006000600060006000C
:1044800006000600060006000600060006000600FC
:1044900007F000000000000000000000000018000D
:1044A0001C000C000600070003000380018001C00F
:1044B00000C000600070003000380018000C0000E0
:1044C0000000000000000000000000000FE00FE00E
:1044D00000600060006000600060006000600060DC
:1044E00000600060006000600060006000600060CC
:1044F0000FE00000000000000000000000000000CD
:1045000003C006C006600C301818301C0000000004
:10451000000000000000000000000000000000009B
:10452000000000000000000000000000000000008B
:10453000000000000000000000000000000000007B
:10454000000000000000000000000000000000006B
:10455000FFFF0000000000000000000000001E003F
:1045600003800000000000000000000000000000C8
:10457000000000000000000000000000000000003B
:10458000000000000000000000000000000000002B
:104590000000000000001FF01038001C001C0FFC81
:1045A0001C1C381C381C3CFC1FDC000000000000F8
:1045B00000000000000000000000000000003800C3
:1045C0003800380038003BF83E1C3C1C380C380CD6
:1045D000380C380C381C3C781FE00000000000004C
:1045E00000000000000000000000000000000000CB
:1045F00000000000000007F80E001C003800380022
:10460000380038001C000F1807F8000000000000F8
:104610000000000000000000000000000000001C7E
:10462000001C001C001C0FFC1C1C381C301C301C07
:10463000301C301C383C1CFC0F9C000000000000AB
:10464000000000000000000000000000000000006A
:104650000000000000000FF01C38381C300C3FFC3C
:104660003000300038001E0C07FC00000000000085
:10467000000000000000000000000000003C01FEFF
:1046800003800300030003007FFC7FFC03000300A2
:10469000030003000300030003000000000000000B
:1046A000000000000000000000000000000000000A
:1046B0000000000000000FFE1C38381838181838A9
:1046C0001FF03B8030003FF01FFC300E700E381C96
:1046D0001FF800000000000000000000000038008B
:1046E0003800380038003BF83E383C1C381C381C79
:1046F000381C381C381C381C381C00000000000016
:10470000000000000000000000000000018003C065
:1047100003C0000000001FC001C001C001C001C0F3
:1047200001C001C001C001C03FFC0000000000004A
:1047300000000000000000000000000000200070E9
:104740000070000000003FF000700070007000700A
:10475000007000700070007000700070007020E049
:104760003FC0000000000000000000000000180032
:10477000180018001800183C187018E01B801F0063
:104780001B8019E018701838181C00000000000089
:1047900000000000000000000000000000001FC03A
:1047A00001C001C001C001C001C001C001C001C001
:1047B00001C001C001C001C03FFC000000000000BA
:1047C00000000000000000000000000000000000E9
:1047D0000000000000006F3C79EE71CE718E718E8A
:1047E000718E718E718E718E718E000000000000CE
:1047F00000000000000000000000000000000000B9
:104800000000000000003BF83E383C1C381C381CFF
:10481000381C381C381C381C381C000000000000F4
:104820000000000000000000000000000000000088
:104830000000000000000FF01C3C381C700E700ED1
:10484000700E700C381C1E780FE000000000000095
:104850000000000000000000000000000000000058
:104860000000000000003BF83E1C3C1C380C380CDB
:10487000380C380C381C3C783FE0380038003800E1
:1048800038000000000000000000000000000000F0
:104890000000000000000FFC1C1C381C301C301CE9
:1048A000301C301C383C1CFC0F9C001C001C001CE5
:1048B000001C0000000000000000000000000000DC
:1048C00000000000000019F81F1C1C0C180E180036
:1048D0001800180018001800180000000000000060
:1048E00000000000000000000000000000000000C8
:1048F0000000000000000FF81C0018001E000FC090
:1049000001F80018001818381FF00000000000001F
:104910000000000000000000000000000000000097
:104920000600060006007FFC0600060006000600E2
:10493000060006000700078401FC000000000000DC
:104940000000000000000000000000000000000067
:10495000000000000000381C381C381C381C381CB3
:10496000381C381C383C1CFC0FDC00000000000028
:104970000000000000000000000000000000000037
:10498000000000000000700C381C38181C380C3077
:104990000E70066007E003C003C0000000000000C6
:1049A0000000000000000000000000000000000007
:1049B000000000000000600660066186738E73CC04
:1049C00033CC366C366C3C3C3C38000000000000B8
:1049D00000000000000000000000000000000000D7
:1049E000000000000000381C1C380E7007E003C0F7
:1049F00003C007E00E701C38381E000000000000E5
:104A000000000000000000000000000000000000A6
:104A1000000000000000700C381C38181C380C30E6
:104A20000E70066007E003C003C0038007000E009D
:104A30007C000000000000000000000000000000FA
:104A40000000000000001FF80038007000E001C006
:104A5000038007000C001FFC3FFC0000000000006A
:104A6000000000000000000000000000007801F8D5
:104A70000380038003800380038003003F003E0027
:104A8000030003800380038003800380038001C050
:104A900000F800000000000001800180018001801A
:104AA00001800180018001800180018001800180FE
:104AB00001800180018001800180018001800180EE
:104AC0000180000000000000000000001E001F80A8
:104AD000018001C001C001C001C000C000FC007C19
:104AE00000C001C001C001C001C001C001C00380FD
:104AF0001F00000000000000000000000000000097
:104B0000000000000000000000001C003F0671CE05
:104B100060FC000000000000000000000000000039
:104B20000000000000000000000000000000000085
:104B30000000000000000000000000000000000075
:104B40000000000000000000000000000000000065
:104B50000000000000000000000000000000000055
:104B60000000000000000000000000000000000045
:104B70000000000000000000000000000000000035
:104B80000000000000000000000000000000000025
:104B9000000000000000003C00003C00003C000061
:104BA0003C00003C00003C00003C00003C00003C9D
:104BB00000003C00003C00003C00003C00003C00C9
:104BC000000000000000003C00007E00003C0000EF
:104BD00000000000000000000000000000000000D5
:104BE00000000000000000000000000000000000C5
:104BF00000000000000003C3E003C3E003C3C003E0
:104C0000C3C003C3C003C3C003C1C0000000000091
:104C10000000000000000000000000000000000094
:104C20000000000000000000000000000000000084
:104C30000000000000000000000000000000000074
:104C40000000000000000000000000000000000064
:104C500000000000000000000000000001E0E00192
:104C6000C0E001C0E001C0E03FFFFE3FFFFE03C126
:104C7000C00381C00381C00381C07FFFFC7FFFFCB4
:104C800007838007038007038007038007078000EE
:104C90000000000000000000000000000000000014
:104CA0000000000000000000000000000000000004
:104CB000000000000700000F00000E0001FFF007D9
:104CC000FFF01F0E001E1E001E1C001E1C000FDC2D
:104CD0000007FC0000FF80003FF00038F800387843
:104CE00000783C0070783071F83FFFE01FFF000053
:104CF000E00000E00000E000000000000000000014
:104D000000000000000000000000000000000000A3
:104D10000000000000000F800F3FE01E78703C7024
:104D200070707070E07071C03FE3801FC700000EAC
:104D300000001C0000780000F0F001E7FC03CF0E3B
:104D4000078E0E0F0E0E1E0E0E3C07BC7003F800F1
:104D50000000000000000000000000000000000053
:104D60000000000000000000000000000000000043
:104D700000000000000000000001FF0007FF800F9E
:104D800003C00F03C00F03C00F0780079F0003FE7F
:104D90000003F0000FF83C3E7C3C3C1F3C780FF8D1
:104DA0007807F87C01F03E03F81FFFFC07FE1F00A8
:104DB00000000000000000000000000000000000F3
:104DC00000000000000000000000000000000000E3
:104DD000000000000000003E00003C00003C00001D
:104DE0003C00003C00003C00003C000000000000D3
:104DF00000000000000000000000000000000000B3
:104E000000000000000000000000000000000000A2
:104E10000000000000000000000000000000000092
:104E20000000000000000000000000000000000082
:104E30000000000000800001C0000780000F00009B
:104E40001E00003C0000780000F00000E00001E0DF
:104E50000001E00001C00003C00003C00001C00069
:104E600001E00001E00000F00000F0000078000028
:104E70003C00001E00000F000007C00001C0000041
:104E80000000000000000000000000000000000022
:104E900000000000000003C00001E00000F000007E
:104EA0007C00003E00001E00000F0000078000078D
:104EB000800003800003C00003C00003C00003C0E3
:104EC000000380000780000780000F00001E000024
:104ED0003C0000780000F00001E0000380000000CA
:104EE00000000000000000000000000000000000C2
:104EF000000000000000001C00001C000018000F53
:104F000018F007DBE0007F0000FF0007DBE00E1871
:104F100070001800001C00001C00000000000000D1
:104F20000000000000000000000000000000000081
:104F30000000000000000000000000000000000071
:104F40000000000000000000000000000000000061
:104F50000000000000000000000000000000000051
:104F60000000000000003C00003C00003C00003C51
:104F700000003C00003C003FFFFC3FFFFC003C0009
:104F8000003C00003C00003C00003C000000000031
:104F90000000000000000000000000000000000011
:104FA0000000000000000000000000000000000001
:104FB00000000000000000000000000000000000F1
:104FC00000000000000000000000000000000000E1
:104FD00000000000000000000000000000000000D1
:104FE000000000007C00007E00007E00003E00000B
:104FF0001E00003C0000F80007E000040000000074
:1050000000000000000000000000000000000000A0
:105010000000000000000000000000000000000090
:105020000000000000000000000000000000000080
:105030000000000000000003FFE003FFE0000000AC
:105040000000000000000000000000000000000060
:105050000000000000000000000000000000000050
:105060000000000000000000000000000000000040
:105070000000000000000000000000000000000030
:105080000000000000000000000000000000000020
:105090000000000000000000000000000000000010
:1050A000000000007C0000FE0000FE00007E00000A
:1050B00000000000000000000000000000000000F0
:1050C00000000000000000000000000000000000E0
:1050D0000000000000000000780000F00000E00088
:1050E00001E00003C0000380000780000F00000EF5
:1050F00000001E00003C0000380000700000F000BE
:1051000000E00001C00003C0000780000700000F9E
:1051100000001E00001C0000000000000000000055
:10512000000000000000000000000000000000007F
:1051300000000000000000000000000001FFC007A8
:10514000FFE00F00F01E00781E003C3C00FC3C0716
:10515000FC3C1FBC3C7C1C3DF03C3FC03C3F003C49
:105160001E00381E00780F80F007FFE001FF80006E
:10517000000000000000000000000000000000002F
:10518000000000000000000000000000000000001F
:10519000000000000000000000000000007E00038E
:1051A000FE001FDE000E1E00001E00001E00001E7E
:1051B00000001E00001E00001E00001E00001E0059
:1051C000001E00001E00001E000FFFF80FFFF80079
:1051D00000000000000000000000000000000000CF
:1051E00000000000000000000000000000000000BF
:1051F00000000000000000000000000003FF800F1E
:10520000FFE00E01F00000F00000F00000F00000F0
:10521000F00001E00003C0000F80003E00007C00B1
:1052200001F00003C0000F80001FFFFC1FFFFC0007
:10523000000000000000000000000000000000006E
:10524000000000000000000000000000000000005E
:105250000000000000000000000000000FFF800FB1
:10526000FFE00001E00000F00000F00001E00003BA
:10527000C001FF0001FFC00003F0000078000078CB
:105280000000780000780001F00FFFC00FFF000061
:10529000000000000000000000000000000000000E
:1052A00000000000000000000000000000000000FE
:1052B000000000000000000000000000000FC0001F
:1052C0001FC0003FC0007BC000F3C001E3C003C3A8
:1052D000C00783C00F03C01C03C03803C07FFFFE9C
:1052E0007FFFFE0003C00003C00003C00003C00036
:1052F00000000000000000000000000000000000AE
:10530000000000000000000000000000000000009D
:105310000000000000000000000000000FFFE00F90
:10532000FFE00F00000F00000F00000F00000F0053
:10533000000FFF800FFFE00000F000007800007811
:105340000000780000F00003E00FFFC00FFE000037
:10535000000000000000000000000000000000004D
:10536000000000000000000000000000000000003D
:10537000000000000000000000000000003FF001FD
:10538000FFF003E0000780000F00001E00001E1F5A
:10539000001FFFE01FC1F81E00781E003C1E003CED
:1053A0001E003C0F00780F80F807FFE001FF80002F
:1053B00000000000000000000000000000000000ED
:1053C00000000000000000000000000000000000DD
:1053D0000000000000000000000000001FFFFC1F94
:1053E000FFFC0000780000F00000E00001E0000396
:1053F000C0000780000F00000F00001E00003C00EE
:1054000000780000F00001F00001E00003C000009F
:10541000000000000000000000000000000000008C
:10542000000000000000000000000000000000007C
:1054300000000000000000000000000003FFE00F7B
:10544000E3F00F00781E00781E00780F00F007E3ED
:10545000E001FF8001FF8007E7E00F00F81E007801
:105460001E003C1E007C1F00F80FFFF003FFC00071
:10547000000000000000000000000000000000002C
:10548000000000000000000000000000000000001C
:1054900000000000000000000000000003FF800F7B
:1054A000C7E01E00F01E00783C00783C00783C000D
:1054B000381E00780FEFF807FFB80000780000787A
:1054C0000000F00001E0000FC00FFF000FF000002F
:1054D00000000000000000000000000000000000CC
:1054E00000000000000000000000000000000000BC
:1054F00000000000000000000000000000000000AC
:105500000000000000000000007E00007E00007E21
:105510000000180000000000000000000000000073
:10552000000000003C00007E00007E00003E000005
:10553000000000000000000000000000000000006B
:10554000000000000000000000000000000000005B
:10555000000000000000000000000000000000004B
:105560000000000000000000007E00007E00007EC1
:105570000000180000000000000000000000000013
:10558000000000003E00007E00007F00001F0000C1
:105590001E00001E0000FC0007F0000400000000D8
:1055A00000000000000000000000000000000000FB
:1055B00000000000000000000000000000000000EB
:1055C00000000000400001E00007C0001F00007E56
:1055D0000001F80003E0000F80000F800003E000EE
:1055E00000F800003E00000F800003E00000E00033
:1055F00000000000000000000000000000000000AB
:10560000000000000000000000000000000000009A
:10561000000000000000000000000000000000008A
:10562000000000000000000000000000000000007A
:10563000001FFFF80000000000000000001FFFF83E
:105640001FFFF80000000000000000000000000044
:10565000000000000000000000000000000000004A
:10566000000000000000000000000000000000003A
:10567000000000000000000000000000000000002A
:10568000000000000007800003E00000F800003E7A
:1056900000000F800003E00000F80001F00007C0E8
:1056A000001F00007C0001F00007C00003000000A4
:1056B00000000000000000000000000000000000EA
:1056C00000000000000000000000000000000000DA
:1056D00000000000000001C00001FE00007F80000B
:1056E00007C00001E00000F00000F00001F000033E
:1056F000E0007FC0007E00007000007000007000BD
:1057000000000000000000F80000F80000F80000B1
:105710000000000000000000000000000000000089
:105720000000000000000000000000000000000079
:10573000000000000000001F8000FFF003C0780799
:10574000801C0E000E1C000E3C000F383FC778FF77
:10575000C770E3C771C3C7F3C387E3C387E3878E0B
:10576000E3878EE3CF8EE3FFFC71F9F070000070E9
:1057700000003800003C00000F01C007FFC000001F
:105780000000000000000000000000000000000019
:10579000000000000000000000000000007E00008B
:1057A0007F0000FF0000E78001E78003C3C003C360
:1057B000C00781E00781E00F00F00F00F81FFFF83D
:1057C0001FFFFC3C003C3C001E78001EF0000F0058
:1057D00000000000000000000000000000000000C9
:1057E00000000000000000000000000000000000B9
:1057F0000000000000000000000000001FFFC01FAC
:10580000FFF01E00F01E00781E00781E00F01E0142
:10581000F01FFFC01FFFE01E01F81E00781E003CB5
:105820001E003C1E00781E00F81FFFE01FFF000056
:105830000000000000000000000000000000000068
:105840000000000000000000000000000000000058
:1058500000000000000000000000000000FFF8034E
:10586000FFF807C0000F00001E00001E00003C00F3
:10587000003C00003C00003C00003C00003E0000FA
:105880001E00000F00000FC00803FFF800FFF80023
:105890000000000000000000000000000000000008
:1058A00000000000000000000000000000000000F8
:1058B0000000000000000000000000003FFF003F6B
:1058C000FFE03C01F03C00783C003C3C003C3C00EC
:1058D0003C3C001E3C001E3C001E3C003C3C003C8E
:1058E0003C00783C00F83C07E03FFFC03FFC000074
:1058F00000000000000000000000000000000000A8
:105900000000000000000000000000000000000097
:105910000000000000000000000000000FFFF00F7A
:10592000FFF00F00000F00000F00000F00000F003D
:10593000000FFFF00FFFF00F00000F00000F00003E
:105940000F00000F00000F00000FFFF00FFFF0002E
:105950000000000000000000000000000000000047
:105960000000000000000000000000000000000037
:105970000000000000000000000000000FFFF00F1A
:10598000FFF00F00000F00000F00000F00000F00DD
:10599000000FFFF00FFFF00F00000F00000F0000DE
:1059A0000F00000F00000F00000F00000F000000AC
:1059B00000000000000000000000000000000000E7
:1059C00000000000000000000000000000000000D7
:1059D00000000000000000000000000000FFFC03C9
:1059E000FFFC0FC0041F00001E00003C00003C0034
:1059F00000780FFC780FFC78003C3C003C3C003CFD
:105A00003E003C1F003C0FC03C03FFFC00FFF800C1
:105A10000000000000000000000000000000000086
:105A20000000000000000000000000000000000076
:105A30000000000000000000000000003C003C3CB2
:105A4000003C3C003C3C003C3C003C3C003C3C00FE
:105A50003C3FFFFC3FFFFC3C003C3C003C3C003C2E
:105A60003C003C3C003C3C003C3C003C3C003C00DE
:105A70000000000000000000000000000000000026
:105A80000000000000000000000000000000000016
:105A90000000000000000000000000000FFFF80FF1
:105AA000FFF8003C00003C00003C00003C00003CD3
:105AB00000003C00003C00003C00003C00003C00BA
:105AC000003C00003C00003C000FFFF80FFFF80016
:105AD00000000000000000000000000000000000C6
